:100000000C9452000C946F000C9400010C946F003F
:100010000C946F000C946F000C9418010C94270141
:100020000C946F000C946F000C946F000C946F0094
:100030000C946F000C946F000C946F000C946F0084
:100040000C946F000C946F000C946F000C946F0074
:100050000C946F000C946F000C946F000C946F0064
:100060000C946F000C946F000C946F000C946F0054
:100070000C946F000C946F000C946F000763423671
:10008000B79BD8A71A39685618AEBAAB558C1D3C29
:10009000B7CC5763BD6DEDFD753EF6177231BF00ED
:1000A0000000803F11241FBECFEFCDBFDFE3DEBFD6
:1000B00010E2A0E0B0E2ECEFF7E102C005900D9293
:1000C000AE31B107D9F720E2AEE1B0E201C01D9236
:1000D000A23EB207E1F70E946F050C94820A0C94CD
:1000E000000002980A98E2E1F4E080818860808351
:1000F00080818F7780838081887F8083229A2A986D
:10010000E2E3F4E08081877F808380818F77808342
:100110008081887F808301980998E1E1F4E0808103
:100120008860808380818F7780838081887F8083CF
:1001300004980C98E4E1F4E08081886080838081F9
:100140008F7780838081887F808303980B98E3E199
:10015000F4E080818860808380818F7780838081D4
:10016000887F8083219A2998E1E3F4E08081877F6A
:10017000808380818F7780838081887F8083209AAD
:100180002898E0E3F4E08081877F808380818F7707
:1001900080838081887F8083E0E0F2E01082138298
:1001A00011821282089580E0089580E00895FC0194
:1001B00064BF4083089541E068ED81E690E00E94CD
:1001C000D70080E00895E0E1F4E0808188608193C9
:1001D000E83184E0F807C9F7E0E3F4E08081886063
:1001E0008193E83384E0F807C9F7089580E0089523
:1001F00041E068ED80E890E00E94D70080E008953B
:100200001F920F920FB60F9211248F9381E080936B
:100210008A008F910F900FBE0F901F9018958091BC
:1002200041018111FCCF81E08093400180E008957D
:100230001F920F920FB60F9211248F9382E080933A
:1002400043018F910F900FBE0F901F9018951F9232
:100250000F920FB60F9211248F9381E08093530178
:100260008F910F900FBE0F901F9018950E94E30082
:100270000E9471000E94F6000E94F8000E94D500C2
:100280000E94DB000E940F010C94D3002F923F923A
:100290004F925F926F927F928F929F92AF92BF9296
:1002A000CF92DF92EF92FF920F931F93CF93DF9342
:1002B000CDB7DEB76297CDBFDEBF888799876C83E5
:1002C0007D834F87588BFB0124813581468157817F
:1002D00060857185828593850E9402074B015C01D0
:1002E000E885F9858281882309F4A3C01A86EC8108
:1002F000FD819381992309F496C0EF85F8890190D7
:10030000F081E02DEB87FC873A85232F30E02D87A5
:100310003E871B82E885F9852380222009F49FC04F
:10032000E92FF0E0E983FA833B81232F30E02E832D
:100330003F834A85429D80011124000F111F000F49
:10034000111FE885F98580819181080F191FEC81C3
:10035000FD810190F081E02DE20FF31FE98BFA8B14
:10036000312CC12CD12C7601F80141905190619033
:1003700071908F01E989FA89608170E080E090E0F6
:100380000E94B007A50194010E949106A301920169
:100390000E9402099B01AC01C701B6010E949106AF
:1003A0006B017C01339429893A8949815A81240F50
:1003B000351F298B3A8B3210D7CFED85FE852981E9
:1003C0003A81E29FC001E39F900DF29F900D1124AE
:1003D0004E815F81840F951F880F991F880F991F89
:1003E000EB85FC858E0F9F1F89839A83A701960159
:1003F000EC81FD8164817581868197810E9402096B
:10040000E981FA816083718382839383FB81FF5F3B
:10041000FB83EC81FD819381FB81F91708F47ACF8E
:10042000E885F9858281FA85FF5FFA87F81708F475
:1004300061CF6296CDBFDEBFDF91CF911F910F914B
:10044000FF90EF90DF90CF90BF90AF909F908F90F4
:100450007F906F905F904F903F902F900895292F3D
:1004600030E029833A835B81452F50E04E835F83E0
:10047000C12CD12C7601A1CF9F92AF92BF92CF9287
:10048000DF92EF92FF920F931F93CF93DF93EC01D4
:100490009A812B81929F90011124232B91F1DA01F3
:1004A000FB01CD90DC90E880F98000811181912CD6
:1004B00020E030E0220F331F220F331F5601A20E1F
:1004C000B31EF701E20FF31FD801A20FB31F2D9146
:1004D0003D914D915C9160817181828193810E94F7
:1004E0009106F501608371838283938393948A815B
:1004F0009B81292D30E0899FC001112428173907DD
:10050000CCF2DF91CF911F910F91FF90EF90DF9090
:10051000CF90BF90AF909F9008955F926F927F921F
:100520008F929F92AF92BF92CF92DF92EF92FF9203
:100530000F931F93CF93DF93FC0192812381929FAE
:1005400090011124232B09F445C0DA017B018F01AE
:100550008D909C90A080B180FB0160807180512CB7
:1005600080E090E0EC01CC0FDD1FCC0FDD1F6401BB
:10057000CC0EDD1EF301E80FF91F608170E080E012
:1005800090E00E94B007F7012481358146815781B0
:100590000E940209CA0DDB1D288139814A815B81D5
:1005A0000E949106F70120853185428553850E947E
:1005B0009106F60160837183828393835394F801DB
:1005C00022813381852D90E0239F90011124821791
:1005D000930744F2DF91CF911F910F91FF90EF901D
:1005E000DF90CF90BF90AF909F908F907F906F9053
:1005F0005F9008958F929F92AF92BF92DF92EF9299
:10060000FF920F931F93CF93DF93FC01928123817D
:10061000929F90011124232B81F18F01E080F180C2
:10062000D12C20E030E0220F331F220F331FE701CF
:10063000C20FD31F88809980AA80BB80C501B401F6
:100640009F7720E030E040E85FE30E9491069B0145
:10065000AC01C501B4010E940207688379838A83D3
:100660009B83D394F801828143812D2D30E0849FB8
:10067000A001112424173507B4F2DF91CF911F9107
:100680000F91FF90EF90DF90BF90AF909F908F9071
:1006900008958F929F92AF92BF92DF92EF92FF9256
:1006A0000F931F93CF93DF93FC0192812381929F3D
:1006B00090011124232B39F14A015B018F01E08065
:1006C000F180D12C20E030E0220F331F220F331FA6
:1006D000E701C20FD31FA5019401688179818A8146
:1006E0009B810E940209688379838A839B83D394C8
:1006F000F801828193812D2D30E0899FC001112462
:10070000281739070CF3DF91CF911F910F91FF90BC
:10071000EF90DF90BF90AF909F908F9008954F9291
:100720005F926F927F929F92AF92BF92CF92DF9231
:10073000EF92FF920F931F93CF93DF93FC01C2813F
:100740002381C29FE0011124209709F480C08C010D
:10075000E080F180DD24DA94CC24CA945FE7B52EE2
:10076000AA24AA94912CE0E0F0E0EE0FFF1FEE0F18
:10077000FF1FEE0DFF1D40805180628073802D2D84
:100780003C2D4B2D5A2DB201C3010E94870818162B
:1007900024F4D42CC52CB62CA72C9394E92DF0E08E
:1007A000EC17FD0714F3912C412C512C3201C0E0C1
:1007B000D0E0CC0FDD1FCC0FDD1FCE0DDF1D2D2DAA
:1007C0003C2D4B2D5A2D688179818A819B810E9415
:1007D00090060E947C079B01AC01688379838A8321
:1007E0009B83C301B2010E9491062B013C019394AB
:1007F000F80182819381899FC0011124C92DD0E025
:10080000C817D907B4F2892B11F1D12C80E090E000
:10081000880F991F880F991FE701C80FD91FA301DF
:100820009201688179818A819B810E940207688395
:1008300079838A839B83D394F801228133818D2D20
:1008400090E0239F90011124821793070CF3DF910E
:10085000CF911F910F91FF90EF90DF90CF90BF90BD
:10086000AF909F907F906F905F904F900895CF9240
:10087000DF92EF92FF920F931F93CF93DF938C0140
:100880000E94C8090E94B00720E030E040E050E339
:100890000E940209F801D381DD23C9F10081118191
:1008A000F80120813181428153810E9490066B01C1
:1008B0007C0120E030E0A9010E94FD0618164CF5ED
:1008C0000C5F1F4FC0E013C0F8012191319141919D
:1008D00051918F01C701B6010E9490066B017C0106
:1008E00020E030E0A9010E94FD06181674F4CF5FE5
:1008F000CD13EACF8FEF8C0FDF91CF911F910F9126
:10090000FF90EF90DF90CF9008958C2FF5CF8FEF71
:10091000F3CF80E0F1CF811104C0289829982A985C
:100920000895289A299A2A9A0895CF93C82F80E08B
:100930000E948B04C13049F028F0C23009F42A9A91
:10094000CF910895289ACF910895299ACF9108952B
:10095000149B08C0139B04C0119906C082E008953F
:1009600081E0089580E0089583E0089581E00E9489
:100970008B042FE38DE093E0215080409040E1F71D
:1009800000C0000080E00E948B042FE38DE093E024
:10099000215080409040E1F700C0000081E00E94BB
:1009A0008B042FE38DE093E0215080409040E1F7ED
:1009B00000C0000080E00E948B042FE38DE093E0F4
:1009C000215080409040E1F700C00000C1E0D3E03A
:1009D000129932C0CC2381F1D330A9F14DEC5CECFB
:1009E0006CEC7DE38D2F0E941306182FC3E081E08D
:1009F0000E948B042FE78AE196E0215080409040CE
:100A0000E1F700C0000080E00E948B042FE78AE13C
:100A100096E0215080409040E1F700C00000C150B6
:100A200031F7812F0E94950487EA91E60197F1F74B
:100A300000C00000129BCECF0E94A8048330A1F317
:100A4000D82FC1E0F1CF609148017091490180E059
:100A500090E00E94160A0E94C809C0CF129BFECFE8
:100A6000609148017091490180E090E00E94160A6F
:100A70004DEC5CEC6CEC7DE383E00E9413060E947D
:100A800095040E94A804C82F833011F180E00E94D1
:100A90008B042FE38DE093E0215080409040E1F7FC
:100AA00000C000004DEC5CEC6CEC7DE38C2F0E94F0
:100AB00013060E9495040E94A8048330E1F72FE3F7
:100AC0008DE093E0215080409040E1F700C00000AD
:100AD00087EA91E60197F1F700C00000D2CF0E94AB
:100AE00036012FE38DE093E0215080409040E1F704
:100AF00000C00000129B0E942E050E94B604CF93F6
:100B0000DF93EAECF0E2119211921192119220E23D
:100B1000E23EF207C1F7833001F1E82FF0E0EE0F7B
:100B2000FF1FEE0FFF1FE653FF4D80E090E0A0E8AF
:100B3000BFE380839183A283B383E0911C20F0E024
:100B4000EE0FFF1FEE0FFF1FEA52FF4D80839183D0
:100B5000A283B383DF91CF910895EAE7F0E282E5C3
:100B600090E2CAE2D0E242EA50E21192119211926E
:100B70001192DC011D921D921D921D92CD011992C0
:100B8000199219921992DA011D921D921D921D92CD
:100B9000AD01B0E2E23AFB0741F7DF91CF91089552
:100BA0008F929F92AF92BF92CF92DF92EF92FF927D
:100BB0000F931F93CF93DF935C01EB016A0149010F
:100BC000B801CE010E94460188819981AA81BB812A
:100BD000F6014081518162817381488359836A8320
:100BE0007B8380839183A283B383A601B401C50173
:100BF0000E944601AE01B601CE010E943C02AE0148
:100C0000B701CE010E948D02CE01DF91CF911F91DD
:100C10000F91FF90EF90DF90CF90BF90AF909F909B
:100C20008F900C94FA028F929F92AF92BF92EF92A4
:100C3000FF920F931F934A015B010E947F058EE292
:100C4000E82E87E9F82E04E417E924EB37E944E1BC
:100C500050E260E170E288E190E20E94D00598E302
:100C6000E92E96E9F92E0EE416E92EEB36E944E179
:100C700050E26CE070E280E190E20E94D00522E454
:100C8000E22E25E9F22E08E515E928EC35E944E1E4
:100C900050E268E070E28CE090E20E94D00544E00F
:100CA00050E268E175E988E090E20E94460144E084
:100CB00050E268E075E9CA010E943C02A501940176
:100CC00060E070E080E89FE30E940207AB01BC0196
:100CD00084E090E20E94490384E090E20E948F0346
:100CE00084E090E20E9437048130B1F088F08230D5
:100CF00059F080911C201F910F91FF90EF90BF90B1
:100D0000AF909F908F90089510921C2080E0F3CFB9
:100D100081E080931C20EFCF82E080931C20EBCFFA
:100D20005058BB27AA270E94A8060C944D080E9481
:100D30003F0838F00E94460820F039F49F3F19F42C
:100D400026F40C9415080EF4E095E7FB0C940F08BC
:100D5000E92F0E945E0858F3BA17620773078407E9
:100D6000950720F079F4A6F50C9480080EF4E09530
:100D70000B2EBA2FA02D0B01B90190010C01CA0155
:100D8000A0011124FF27591B99F0593F50F4503E00
:100D900068F11A16F040A22F232F342F4427585FF2
:100DA000F3CF469537952795A795F0405395C9F70A
:100DB0007EF41F16BA0B620B730B840BBAF09150C2
:100DC000A1F0FF0FBB1F661F771F881FC2F70EC061
:100DD000BA0F621F731F841F48F487957795679534
:100DE000B795F7959E3F08F0B0CF9395880F08F020
:100DF0009927EE0F9795879508950E94EB0708F4C1
:100E000081E008950E9416070C944D080E94460840
:100E100058F00E943F0840F029F45F3F29F00C94FD
:100E20000F0851110C9481080C9415080E945E085B
:100E300068F39923B1F3552391F3951B550BBB2709
:100E4000AA2762177307840738F09F5F5F4F220F4E
:100E5000331F441FAA1FA9F335D00E2E3AF0E0E845
:100E600032D091505040E695001CCAF72BD0FE2F8F
:100E700029D0660F771F881FBB1F26173707480723
:100E8000AB07B0E809F0BB0B802DBF01FF279358DB
:100E90005F4F3AF09E3F510578F00C940F080C9488
:100EA00081085F3FE4F3983ED4F386957795679584
:100EB000B795F7959F5FC9F7880F911D9695879510
:100EC00097F90895E1E0660F771F881FBB1F62172F
:100ED00073078407BA0720F0621B730B840BBA0BED
:100EE000EE1F88F7E095089529F416F00C940F088A
:100EF0000C9480080C9415080E946608A8F3963894
:100F0000A0F707F80F92E8942BE33AEA48EB5FE783
:100F10000E9418090F920F920F924DB75EB70F9271
:100F20000E94CE08ECE7F0E00E9418084F915F9114
:100F3000EF91FF91E595EE1FFF1F49F0FE57E06826
:100F40004427EE0F441FFA95E1F74195550B0E9497
:100F500098080F9007FE0C948C080895E89409C037
:100F600097FB3EF490958095709561957F4F8F4FDC
:100F70009F4F9923A9F0F92F96E9BB279395F695F2
:100F8000879577956795B795F111F8CFFAF4BB0F70
:100F900011F460FF1BC06F5F7F4F8F4F9F4F16C0D4
:100FA000882311F096E911C0772321F09EE8872F5E
:100FB000762F05C0662371F096E8862F70E060E01A
:100FC0002AF09A95660F771F881FDAF7880F969593
:100FD000879597F90895990F0008550FAA0BE0E837
:100FE000FEEF16161706E807F907C0F012161306EB
:100FF000E407F50798F0621B730B840B950B39F42B
:101000000A2661F0232B242B252B21F408950A2690
:1010100009F4A140A6958FEF811D811D089597F9D0
:101020009F6780E870E060E008959FEF80EC08958E
:10103000DF93CF931F930F93FF92EF92DF927B0189
:101040008C01689406C0DA2EEF010E941509FE019A
:10105000E894A5912591359145915591A6F3EF011D
:101060000E94A806FE019701A801DA9469F7DF90B3
:10107000EF90FF900F911F91CF91DF910895002481
:101080000A941616170618060906089500240A94ED
:1010900012161306140605060895092E0394000C73
:1010A00011F4882352F0BB0F40F4BF2B11F460FF02
:1010B00004C06F5F7F4F8F4F9F4F089557FD90582B
:1010C000440F551F59F05F3F71F04795880F97FB0C
:1010D000991F61F09F3F79F08795089512161306C6
:1010E0001406551FF2CF4695F1DF08C016161706F5
:1010F0001806991FF1CF869571056105089408952A
:10110000E894BB2766277727CB0197F908950E94BB
:10111000EB0708F48FEF08959B01AC0160E070E0ED
:1011200080E89FE30C9402070C940F080C946F095D
:101130000E946608D8F39923C9F3940F511DA3F3B5
:101140009150504094F059F0882332F0660F771F89
:10115000881F91505040C1F79E3F51052CF7880FD2
:10116000911D9695879597F908955F3FACF0983E4D
:101170009CF0BB27869577956795B79508F4B16085
:101180009395C1F7BB0F58F711F460FFE8CF6F5F7D
:101190007F4F8F4F9F4FE3CF0C948108FA01DC0102
:1011A000AA0FBB1F9B01AC01BF5728F4222733278E
:1011B0004427507820C0B75190F4AB2F00244695B7
:1011C00037952795011CA395D2F3002071F0220FCB
:1011D000331F441FB395DAF30ED00C9490066130A0
:1011E0007105A0E88A07B94630F49B01AC01662777
:1011F000772788279078309621F0208331834283A7
:10120000538308950E9415090C944D080E943F08CD
:1012100038F00E94460820F0952311F00C940F0836
:101220000C94150811240C9481080E945E0870F338
:10123000959FC1F3950F50E0551F629FF001729F7B
:10124000BB27F00DB11D639FAA27F00DB11DAA1F8A
:10125000649F6627B00DA11D661F829F2227B00DD7
:10126000A11D621F739FB00DA11D621F839FA00D62
:10127000611D221F749F3327A00D611D231F849FB2
:10128000600D211D822F762F6A2F11249F57504009
:101290009AF0F1F088234AF0EE0FFF1FBB1F661F84
:1012A000771F881F91505040A9F79E3F510580F04D
:1012B0000C940F080C9481085F3FE4F3983ED4F33C
:1012C000869577956795B795F795E7959F5FC1F7F1
:1012D000FE2B880F911D9695879597F908959F3F4E
:1012E00031F0915020F4879577956795B795880FE1
:1012F000911D9695879597F908958F929F92AF9239
:10130000BF92CF92DF92EF92FF92CF93DF93EC01E7
:10131000688179818A819B816115710581059105BB
:1013200021F464E279ED8BE597E02DE133EF41E0C4
:1013300050E00E941F0A49015A019B01AC01A7EA33
:10134000B1E40E943E0A6B017C01ACEEB4EFA50152
:1013500094010E944C0ADC01CB018C0D9D1DAE1D39
:10136000BF1DB7FF03C00197A109B04888839983C7
:10137000AA83BB83BC01CD019F77DF91CF91FF9002
:10138000EF90DF90CF90BF90AF909F908F90089597
:101390008F929F92AF92BF92CF92DF92EF92FF9285
:1013A0006091002070910120809102209091032093
:1013B000611571058105910521F464E279ED8BE5F4
:1013C00097E02DE133EF41E050E00E941F0A490110
:1013D0005A019B01AC01A7EAB1E40E943E0A6B01ED
:1013E0007C01ACEEB4EFA50194010E944C0ADC0133
:1013F000CB018C0D9D1DAE1DBF1DB7FF03C0019716
:10140000A109B0488093002090930120A09302206E
:10141000B0930320BC01CD019F77FF90EF90DF9048
:10142000CF90BF90AF909F908F90089560930020D1
:101430007093012080930220909303200895052E3D
:1014400097FB1EF400940E94360A57FD07D00E94B5
:10145000510A07FC03D04EF40C94360A509540957F
:10146000309521953F4F4F4F5F4F08959095809550
:10147000709561957F4F8F4F9F4F08950E94730A1B
:10148000A59F900DB49F900DA49F800D911D1124D8
:101490000895B7FF0C943E0A0E943E0A821B930BEC
:1014A0000895A1E21A2EAA1BBB1BFD010DC0AA1FA5
:1014B000BB1FEE1FFF1FA217B307E407F50720F0BD
:1014C000A21BB30BE40BF50B661F771F881F991F38
:1014D0001A9469F760957095809590959B01AC0181
:1014E000BD01CF010895A29FB001B39FC001A39F8A
:1014F000700D811D1124911DB29F700D811D11244D
:08150000911D0895F894FFCF3E
:101508000C950103E26D8BBE146C09BE6F0B64BEB3
:1015180024950A03FCC34A3C6410DFBF9DA091FFD9
:101528000D574770E99B95C2FA068B8FCC7BCFA9E4
:10153800D36CA380B5A20065749B4E95010A25BEA5
:10154800053C19ED9EBFFF8C67B0E000289C717FB9
:1015580064950A0A38CB843C19200CC0C333BA6D91
:1015680047579FA6CE028FEE544F01D3498D92FF65
:10157800746E859B7E7B807C9882513B4092A4B29E
:10158800A27B615B712EF8476286C0B256D4BF69F0
:1015980085C3A1A8509C559DA7E2AB8F715978913E
:1015A800B08D987FD69D5A7B6076BECC66A5BF92DB
:1015B800C28B6DC45782771AE461EB009F91187152
:1015C800D4950A0ABCF1CB3C542657C0A573C7A9C9
:1015D800809578948784EF725BC4BF78765C6E548C
:1015E80080907C40766A505B9D7193C1E78DC355AE
:1015F8006B32EA689CB89988C786FFDA6294C12181
:1016080090ABFA5787A29A88985AAB85775AD58FA4
:101618008F628EDF8E7D30366557A2E961C07F7F8D
:10162800997F8960717884003E73F685874F5A3CAC
:101638004496010A075DED3BFEDFAEBE0092A9238A
:10164800FF1E7DA34C3B5A960A0AF5B2A83C8ED4DD
:1016580040C0FFA65A8A2CC4998F76C59BA562996B
:10166800605FB44DD583A1719A8F8B9B9786829FBB
:10167800848FC4DB845590DC7756E35095F1ACAB8E
:10168800A68E8483AE5DB9B2C9EAB400BCAAB1C360
:10169800899D5F30E14F8DD091B8D1C7F2AC878E6C
:1016A800C872A66EAC6970B8ABB066821DA8CEE2EF
:1016B800DC7D81A796E1CA960A0ACF98FB3C55D1F2
:1016C8008AC091659C939B737054AFBA8BA8B07411
:1016D80066866C83AE839293A32961714F54888484
:1016E800A2908EA26786BF7545786D6D9AA8C5537E
:1016F80058FF8D008D93BC8F8C8B8E8793908B8435
:1017080093818B72B1807974BB49AB8A85D2D759E2
:101718008AAB917EC6889A818097748B8DC3758AAF
:10172800858D809C8F993A97010A1C5F8D3BAAB0E2
:101738004CBE5997B82EFF038E4E008450970A0A64
:1017480036259A3C007128C0C7627B359E777EAAF1
:10175800AAE5ABAB8A9555859471607ED1AED55B11
:10176800C8A6B5E5588A9CFFD4388C8B5B745DA7F6
:10177800306EA096E04FDCD25E9D84848A868E7E91
:1017880085938092905585779272A988AD832A7740
:1017980094738F83EFEA3DAC909B789698CD8769D8
:1017A800489495603F00B07DAE926368C097060A82
:1017B800501CF73CAB2394C0BBE09D9800D697BB68
:1017C8009DAA875C37EDE44C82FCC852CBA1FFA7E9
:1017D800AC9D163358A2A1A296B294A162997B91AE
:1017E800A0A795B295C57A9A9F8EA4AF95AF904160
:0417F8007B969E93AB
:1017FC00010000001E2001032A20010A5220010AC8
:0E180C007A20010AA220010ACA200106030068
:02000004008278
:090000000000020000C40700002A
:00000001FF
