:100000000C9452000C946F000C9400010C946F003F
:100010000C946F000C946F000C9418010C94270141
:100020000C946F000C946F000C946F000C946F0094
:100030000C946F000C946F000C946F000C946F0084
:100040000C946F000C946F000C946F000C946F0074
:100050000C946F000C946F000C946F000C946F0064
:100060000C946F000C946F000C946F000C946F0054
:100070000C946F000C946F000C946F000763423671
:10008000B79BD8A71A39685618AEBAAB558C1D3C29
:10009000B7CC5763BD6DEDFD753EF6177231BF00ED
:1000A0000000803F11241FBECFEFCDBFDFE3DEBFD6
:1000B00010E2A0E0B0E2E4E5F8E102C005900D92A4
:1000C000A232B107D9F720E2A2E2B0E201C01D924C
:1000D000A23FB207E1F70E94AC060C94AE0A0C9462
:1000E000000002980A98E2E1F4E080818860808351
:1000F00080818F7780838081887F8083229A2A986D
:10010000E2E3F4E08081877F808380818F77808342
:100110008081887F808301980998E1E1F4E0808103
:100120008860808380818F7780838081887F8083CF
:1001300004980C98E4E1F4E08081886080838081F9
:100140008F7780838081887F808303980B98E3E199
:10015000F4E080818860808380818F7780838081D4
:10016000887F8083219A2998E1E3F4E08081877F6A
:10017000808380818F7780838081887F8083209AAD
:100180002898E0E3F4E08081877F808380818F7707
:1001900080838081887F8083E0E0F2E01082138298
:1001A00011821282089580E0089580E00895FC0194
:1001B00064BF4083089541E068ED81E690E00E94CD
:1001C000D70080E00895E0E1F4E0808188608193C9
:1001D000E83184E0F807C9F7E0E3F4E08081886063
:1001E0008193E83384E0F807C9F7089580E0089523
:1001F00041E068ED80E890E00E94D70080E008953B
:100200001F920F920FB60F9211248F9381E080936B
:100210008A008F910F900FBE0F901F9018958091BC
:1002200041018111FCCF81E08093400180E008957D
:100230001F920F920FB60F9211248F9382E080933A
:1002400043018F910F900FBE0F901F9018951F9232
:100250000F920FB60F9211248F9381E08093530178
:100260008F910F900FBE0F901F9018950E94E30082
:100270000E9471000E94F6000E94F8000E94D500C2
:100280000E94DB000E940F010C94D3002F923F923A
:100290004F925F926F927F928F929F92AF92BF9296
:1002A000CF92DF92EF92FF920F931F93CF93DF9342
:1002B000CDB7DEB76297CDBFDEBF888799876C83E5
:1002C0007D834F87588BFB0124813581468157817F
:1002D00060857185828593850E942E074B015C01A4
:1002E000E885F9858281882309F4A3C01A86EC8108
:1002F000FD819381992309F496C0EF85F8890190D7
:10030000F081E02DEB87FC873A85232F30E02D87A5
:100310003E871B82E885F9852380222009F49FC04F
:10032000E92FF0E0E983FA833B81232F30E02E832D
:100330003F834A85429D80011124000F111F000F49
:10034000111FE885F98580819181080F191FEC81C3
:10035000FD810190F081E02DE20FF31FE98BFA8B14
:10036000312CC12CD12C7601F80141905190619033
:1003700071908F01E989FA89608170E080E090E0F6
:100380000E94DC07A50194010E94BD06A301920111
:100390000E942E099B01AC01C701B6010E94BD0657
:1003A0006B017C01339429893A8949815A81240F50
:1003B000351F298B3A8B3210D7CFED85FE852981E9
:1003C0003A81E29FC001E39F900DF29F900D1124AE
:1003D0004E815F81840F951F880F991F880F991F89
:1003E000EB85FC858E0F9F1F89839A83A701960159
:1003F000EC81FD8164817581868197810E942E093F
:10040000E981FA816083718382839383FB81FF5F3B
:10041000FB83EC81FD819381FB81F91708F47ACF8E
:10042000E885F9858281FA85FF5FFA87F81708F475
:1004300061CF6296CDBFDEBFDF91CF911F910F914B
:10044000FF90EF90DF90CF90BF90AF909F908F90F4
:100450007F906F905F904F903F902F900895292F3D
:1004600030E029833A835B81452F50E04E835F83E0
:10047000C12CD12C7601A1CF9F92AF92BF92CF9287
:10048000DF92EF92FF920F931F93CF93DF93EC01D4
:100490009A812B81929F90011124232B91F1DA01F3
:1004A000FB01CD90DC90E880F98000811181912CD6
:1004B00020E030E0220F331F220F331F5601A20E1F
:1004C000B31EF701E20FF31FD801A20FB31F2D9146
:1004D0003D914D915C9160817181828193810E94F7
:1004E000BD06F501608371838283938393948A812F
:1004F0009B81292D30E0899FC001112428173907DD
:10050000CCF2DF91CF911F910F91FF90EF90DF9090
:10051000CF90BF90AF909F9008955F926F927F921F
:100520008F929F92AF92BF92CF92DF92EF92FF9203
:100530000F931F93CF93DF93FC0192812381929FAE
:1005400090011124232B09F445C0DA017B018F01AE
:100550008D909C90A080B180FB0160807180512CB7
:1005600080E090E0EC01CC0FDD1FCC0FDD1F6401BB
:10057000CC0EDD1EF301E80FF91F608170E080E012
:1005800090E00E94DC07F701248135814681578184
:100590000E942E09CA0DDB1D288139814A815B81A9
:1005A0000E94BD06F70120853185428553850E9452
:1005B000BD06F60160837183828393835394F801AF
:1005C00022813381852D90E0239F90011124821791
:1005D000930744F2DF91CF911F910F91FF90EF901D
:1005E000DF90CF90BF90AF909F908F907F906F9053
:1005F0005F9008958F929F92AF92BF92DF92EF9299
:10060000FF920F931F93CF93DF93FC01928123817D
:10061000929F90011124232B81F18F01E080F180C2
:10062000D12C20E030E0220F331F220F331FE701CF
:10063000C20FD31F88809980AA80BB80C501B401F6
:100640009F7720E030E040E85FE30E94BD069B0119
:10065000AC01C501B4010E942E07688379838A83A7
:100660009B83D394F801828143812D2D30E0849FB8
:10067000A001112424173507B4F2DF91CF911F9107
:100680000F91FF90EF90DF90BF90AF909F908F9071
:1006900008958F929F92AF92BF92DF92EF92FF9256
:1006A0000F931F93CF93DF93FC0192812381929F3D
:1006B00090011124232B39F14A015B018F01E08065
:1006C000F180D12C20E030E0220F331F220F331FA6
:1006D000E701C20FD31FA5019401688179818A8146
:1006E0009B810E942E09688379838A839B83D3949C
:1006F000F801828193812D2D30E0899FC001112462
:10070000281739070CF3DF91CF911F910F91FF90BC
:10071000EF90DF90BF90AF909F908F9008954F9291
:100720005F926F927F929F92AF92BF92CF92DF9231
:10073000EF92FF920F931F93CF93DF93FC01C2813F
:100740002381C29FE0011124209709F480C08C010D
:10075000E080F180DD24DA94CC24CA945FE7B52EE2
:10076000AA24AA94912CE0E0F0E0EE0FFF1FEE0F18
:10077000FF1FEE0DFF1D40805180628073802D2D84
:100780003C2D4B2D5A2DB201C3010E94B3081816FF
:1007900024F4D42CC52CB62CA72C9394E92DF0E08E
:1007A000EC17FD0714F3912C412C512C3201C0E0C1
:1007B000D0E0CC0FDD1FCC0FDD1FCE0DDF1D2D2DAA
:1007C0003C2D4B2D5A2D688179818A819B810E9415
:1007D000BC060E94A8079B01AC01688379838A83C9
:1007E0009B83C301B2010E94BD062B013C0193947F
:1007F000F80182819381899FC0011124C92DD0E025
:10080000C817D907B4F2892B11F1D12C80E090E000
:10081000880F991F880F991FE701C80FD91FA301DF
:100820009201688179818A819B810E942E07688369
:1008300079838A839B83D394F801228133818D2D20
:1008400090E0239F90011124821793070CF3DF910E
:10085000CF911F910F91FF90EF90DF90CF90BF90BD
:10086000AF909F907F906F905F904F900895CF9240
:10087000DF92EF92FF920F931F93CF93DF938C0140
:100880000E94F4090E94DC0720E030E040E050E3E1
:100890000E942E09F801D381DD23C9F10081118165
:1008A000F80120813181428153810E94BC066B0195
:1008B0007C0120E030E0A9010E94290718164CF5C0
:1008C0000C5F1F4FC0E013C0F8012191319141919D
:1008D00051918F01C701B6010E94BC066B017C01DA
:1008E00020E030E0A9010E942907181674F4CF5FB8
:1008F000CD13EACF8FEF8C0FDF91CF911F910F9126
:10090000FF90EF90DF90CF9008958C2FF5CF8FEF71
:10091000F3CF80E0F1CFCF93DF93EAEDF0E21192D5
:1009200011921192119220E2E23FF207C1F7833057
:1009300001F1E82FF0E0EE0FFF1FEE0FFF1FE65270
:10094000FF4D80E090E0A0E8BFE380839183A28325
:10095000B383E0912020F0E0EE0FFF1FEE0FFF1FAA
:10096000EA51FF4D80839183A283B383DF91CF91BE
:100970000895EAE8F0E282E690E2CEE2D0E242EBCD
:1009800050E21192119211921192DC011D921D926E
:100990001D921D92CD011992199219921992DA01A4
:1009A0001D921D921D921D92AD01B0E2E23BFB072C
:1009B00041F7DF91CF9108958F929F92AF92BF92AE
:1009C000CF92DF92EF92FF920F931F93CF93DF931B
:1009D0005C01EB016A014901B801CE010E944601A8
:1009E00088819981AA81BB81F60140815181628110
:1009F0007381488359836A837B8380839183A28335
:100A0000B383A601B401C5010E944601AE01B6013F
:100A1000CE010E943C02AE01B701CE010E948D02C0
:100A2000CE01DF91CF911F910F91FF90EF90DF905A
:100A3000CF90BF90AF909F908F900C94FA028F92BE
:100A40009F92AF92BF92EF92FF920F931F93CF931B
:100A5000DF934A015B010E948B0486E8E82E87E958
:100A6000F82E0CE917E92CE038E948E150E264E19E
:100A700070E28CE190E20E94DC0490E9E92E96E9B4
:100A8000F92E06EA16E926E137E948E150E260E18D
:100A900070E284E190E20E94DC042AE9E22E25E97A
:100AA000F22E00EB15E920E236E948E150E26CE075
:100AB00070E280E190E20E94DC0448E050E260E7EE
:100AC00075E98CE090E20E94460148E050E260E661
:100AD00075E9CA010E943C0288E090E20E948F03FF
:100AE0000091042010910520C0910820D091092088
:100AF0002C813D814E815F81688579858A859B85C2
:100B00000E94BC06F80160837183828393832885E9
:100B100039854A855B85688179818A819B810E94BC
:100B2000BC06F801648375838683978328813981A5
:100B30004A815B816C817D818E819F810E94BC0690
:100B4000F8016087718782879387A501940160E02F
:100B500070E080E89FE30E942E07AB01BC0184E0B7
:100B600090E20E94490384E090E20E948F0384E0B7
:100B700090E20E94370480932020DF91CF911F9153
:100B80000F91FF90EF90BF90AF909F908F9008953E
:100B9000811104C0289829982A980895289A299A9A
:100BA0002A9A0895CF93C82F80E00E94C805C130CB
:100BB00049F028F0C23009F42A9ACF910895289A72
:100BC000CF910895299ACF910895149B08C0139B43
:100BD00004C0119906C082E0089581E0089580E084
:100BE000089583E0089581E00E94C8052FE38DE019
:100BF00093E0215080409040E1F700C0000080E089
:100C00000E94C8052FE38DE093E021508040904082
:100C1000E1F700C0000081E00E94C8052FE38DE0ED
:100C200093E0215080409040E1F700C0000080E058
:100C30000E94C8052FE38DE093E021508040904052
:100C4000E1F700C00000C1E0D3E0129932C0CC232C
:100C500081F1D330A9F14DEC5CEC6CEC7DE38D2F90
:100C60000E941F05182FC3E081E00E94C8052FE7EE
:100C70008AE196E0215080409040E1F700C00000FA
:100C800080E00E94C8052FE78AE196E0215080406D
:100C90009040E1F700C00000C15031F7812F0E9461
:100CA000D20587EA91E60197F1F700C00000129B98
:100CB000CECF0E94E5058330A1F3D82FC1E0F1CF5C
:100CC000609148017091490180E090E00E94420AE1
:100CD0000E94F409C0CF129BFECF60914801709131
:100CE000490180E090E00E94420A4DEC5CEC6CEC23
:100CF0007DE383E00E941F050E94D2050E94E50566
:100D0000C82F833011F180E00E94C8052FE38DE0E9
:100D100093E0215080409040E1F700C000004DEC8E
:100D20005CEC6CEC7DE38C2F0E941F050E94D205C9
:100D30000E94E5058330E1F72FE38DE093E0215039
:100D400080409040E1F700C0000087EA91E60197FB
:100D5000F1F700C00000D2CF0E9436012FE38DE0F2
:100D600093E0215080409040E1F700C00000129BCA
:100D70000E946B060E94F3055058BB27AA270E94C9
:100D8000D4060C9479080E946B0838F00E9472080F
:100D900020F039F49F3F19F426F40C9441080EF426
:100DA000E095E7FB0C943B08E92F0E948A0858F372
:100DB000BA17620773078407950720F079F4A6F540
:100DC0000C94AC080EF4E0950B2EBA2FA02D0B015D
:100DD000B90190010C01CA01A0011124FF27591B80
:100DE00099F0593F50F4503E68F11A16F040A22F86
:100DF000232F342F4427585FF3CF469537952795F7
:100E0000A795F0405395C9F77EF41F16BA0B620BF5
:100E1000730B840BBAF09150A1F0FF0FBB1F661F3C
:100E2000771F881FC2F70EC0BA0F621F731F841F7F
:100E300048F4879577956795B795F7959E3F08F0A5
:100E4000B0CF9395880F08F09927EE0F9795879567
:100E500008950E94170808F481E008950E9442074F
:100E60000C9479080E94720858F00E946B0840F0B8
:100E700029F45F3F29F00C943B0851110C94AD0804
:100E80000C9441080E948A0868F39923B1F3552312
:100E900091F3951B550BBB27AA276217730784078D
:100EA00038F09F5F5F4F220F331F441FAA1FA9F323
:100EB00035D00E2E3AF0E0E832D091505040E69511
:100EC000001CCAF72BD0FE2F29D0660F771F881F72
:100ED000BB1F261737074807AB07B0E809F0BB0B65
:100EE000802DBF01FF2793585F4F3AF09E3F510579
:100EF00078F00C943B080C94AD085F3FE4F3983E07
:100F0000D4F3869577956795B795F7959F5FC9F761
:100F1000880F911D9695879597F90895E1E0660FE2
:100F2000771F881FBB1F621773078407BA0720F05B
:100F3000621B730B840BBA0BEE1F88F7E0950895C4
:100F400029F416F00C943B080C94AC080C9441085E
:100F50000E949208A8F39638A0F707F80F92E89439
:100F60002BE33AEA48EB5FE70E9444090F920F92A5
:100F70000F924DB75EB70F920E94FA08ECE7F0E0CF
:100F80000E9444084F915F91EF91FF91E595EE1F0C
:100F9000FF1F49F0FE57E0684427EE0F441FFA9503
:100FA000E1F74195550B0E94C4080F9007FE0C9481
:100FB000B8080895E89409C097FB3EF49095809591
:100FC000709561957F4F8F4F9F4F9923A9F0F92F0F
:100FD00096E9BB279395F695879577956795B7958D
:100FE000F111F8CFFAF4BB0F11F460FF1BC06F5F73
:100FF0007F4F8F4F9F4F16C0882311F096E911C085
:10100000772321F09EE8872F762F05C0662371F0A5
:1010100096E8862F70E060E02AF09A95660F771FB9
:10102000881FDAF7880F9695879597F90895990F95
:101030000008550FAA0BE0E8FEEF16161706E807A2
:10104000F907C0F012161306E407F50798F0621BC3
:10105000730B840B950B39F40A2661F0232B242B98
:10106000252B21F408950A2609F4A140A6958FEFB7
:10107000811D811D089597F99F6780E870E060E009
:1010800008959FEF80EC0895DF93CF931F930F9304
:10109000FF92EF92DF927B018C01689406C0DA2EFA
:1010A000EF010E944109FE01E894A5912591359137
:1010B00045915591A6F3EF010E94D406FE019701D8
:1010C000A801DA9469F7DF90EF90FF900F911F91DC
:1010D000CF91DF91089500240A941616170618067A
:1010E0000906089500240A9412161306140605062C
:1010F0000895092E0394000C11F4882352F0BB0FBD
:1011000040F4BF2B11F460FF04C06F5F7F4F8F4F1F
:101110009F4F089557FD9058440F551F59F05F3F5A
:1011200071F04795880F97FB991F61F09F3F79F009
:1011300087950895121613061406551FF2CF46958B
:10114000F1DF08C0161617061806991FF1CF86950D
:101150007105610508940895E894BB2766277727F1
:10116000CB0197F908950E94170808F48FEF0895AE
:101170009B01AC0160E070E080E89FE30C942E07D7
:101180000C943B080C949B090E949208D8F3992375
:10119000C9F3940F511DA3F39150504094F059F0AE
:1011A000882332F0660F771F881F91505040C1F797
:1011B0009E3F51052CF7880F911D9695879597F9BD
:1011C00008955F3FACF0983E9CF0BB2786957795DD
:1011D0006795B79508F4B1609395C1F7BB0F58F7C1
:1011E00011F460FFE8CF6F5F7F4F8F4F9F4FE3CFCA
:1011F0000C94AD08FA01DC01AA0FBB1F9B01AC01E6
:10120000BF5728F4222733274427507820C0B751EE
:1012100090F4AB2F0024469537952795011CA39594
:10122000D2F3002071F0220F331F441FB395DAF37D
:101230000ED00C94BC0661307105A0E88A07B9464F
:1012400030F49B01AC016627772788279078309689
:1012500021F0208331834283538308950E94410902
:101260000C9479080E946B0838F00E94720820F0F4
:10127000952311F00C943B080C94410811240C9414
:10128000AD080E948A0870F3959FC1F3950F50E056
:10129000551F629FF001729FBB27F00DB11D639F28
:1012A000AA27F00DB11DAA1F649F6627B00DA11DCE
:1012B000661F829F2227B00DA11D621F739FB00D74
:1012C000A11D621F839FA00D611D221F749F3327E4
:1012D000A00D611D231F849F600D211D822F762F7D
:1012E0006A2F11249F5750409AF0F1F088234AF05A
:1012F000EE0FFF1FBB1F661F771F881F91505040C6
:10130000A9F79E3F510580F00C943B080C94AD0862
:101310005F3FE4F3983ED4F3869577956795B7954C
:10132000F795E7959F5FC1F7FE2B880F911D969566
:10133000879597F908959F3F31F0915020F4879554
:1013400077956795B795880F911D9695879597F92D
:1013500008958F929F92AF92BF92CF92DF92EF92B9
:10136000FF92CF93DF93EC01688179818A819B8121
:10137000611571058105910521F464E279ED8BE534
:1013800097E02DE133EF41E050E00E944B0A490124
:101390005A019B01AC01A7EAB1E40E946A0A6B0101
:1013A0007C01ACEEB4EFA50194010E94780ADC0147
:1013B000CB018C0D9D1DAE1DBF1DB7FF03C0019756
:1013C000A109B04888839983AA83BB83BC01CD015E
:1013D0009F77DF91CF91FF90EF90DF90CF90BF90FC
:1013E000AF909F908F9008958F929F92AF92BF92EF
:1013F000CF92DF92EF92FF926091002070910120D6
:10140000809102209091032061157105810591055D
:1014100021F464E279ED8BE597E02DE133EF41E0D3
:1014200050E00E944B0A49015A019B01AC01A7EA16
:10143000B1E40E946A0A6B017C01ACEEB4EFA50135
:1014400094010E94780ADC01CB018C0D9D1DAE1D1C
:10145000BF1DB7FF03C00197A109B04880930020CA
:1014600090930120A0930220B0930320BC01CD01F2
:101470009F77FF90EF90DF90CF90BF90AF909F90BD
:101480008F90089560930020709301208093022034
:10149000909303200895052E97FB1EF400940E945C
:1014A000620A57FD07D00E947D0A07FC03D04EF464
:1014B0000C94620A50954095309521953F4F4F4FBF
:1014C0005F4F089590958095709561957F4F8F4FF0
:1014D0009F4F08950E949F0AA59F900DB49F900D65
:1014E000A49F800D911D11240895B7FF0C946A0AE2
:1014F0000E946A0A821B930B0895A1E21A2EAA1B6E
:10150000BB1BFD010DC0AA1FBB1FEE1FFF1FA217B3
:10151000B307E407F50720F0A21BB30BE40BF50BB0
:10152000661F771F881F991F1A9469F76095709539
:10153000809590959B01AC01BD01CF010895A29FBC
:10154000B001B39FC001A39F700D811D1124911D97
:10155000B29F700D811D1124911D0895F894FFCF45
:1015600064950103E26D8BBE146C09BE6F0B64BE03
:101570007C950A03FCC34A3C6410DFBF9DA091FF29
:101580000D574770E99B95C2FA068B8FCC7BCFA98C
:10159000D36CA380B5A20065749BA695010A25BEF5
:1015A000053C19ED9EBFFF8C67B0E000289C717F61
:1015B000BC950A0A38CB843C19200CC0C333BA6DE1
:1015C00047579FA6CE028FEE544F01D3498D92FF0D
:1015D000746E859B7E7B807C9882513B4092A4B246
:1015E000A27B615B712EF8476286C0B256D4BF6998
:1015F00085C3A1A8509C559DA7E2AB8F71597891E6
:10160000B08D987FD69D5A7B6076BECC66A5BF9282
:10161000C28B6DC45782771AE461EB009F911871F9
:101620002C960A0ABCF1CB3C542657C0A573C7A917
:10163000809578948784EF725BC4BF78765C6E5433
:1016400080907C40766A505B9D7193C1E78DC35555
:101650006B32EA689CB89988C786FFDA6294C12128
:1016600090ABFA5787A29A88985AAB85775AD58F4C
:101670008F628EDF8E7D30366557A2E961C07F7F35
:10168000997F8960717884003E73F685874F5A3C54
:101690009C96010A075DED3BFEDFAEBE0092A923DA
:1016A000FF1E7DA34C3BB2960A0AF5B2A83C8ED42D
:1016B00040C0FFA65A8A2CC4998F76C59BA5629913
:1016C000605FB44DD583A1719A8F8B9B9786829F63
:1016D000848FC4DB845590DC7756E35095F1ACAB36
:1016E000A68E8483AE5DB9B2C9EAB400BCAAB1C308
:1016F000899D5F30E14F8DD091B8D1C7F2AC878E14
:10170000C872A66EAC6970B8ABB066821DA8CEE296
:10171000DC7D81A796E122970A0ACF98FB3C55D140
:101720008AC091659C939B737054AFBA8BA8B074B8
:1017300066866C83AE839293A32961714F5488842B
:10174000A2908EA26786BF7545786D6D9AA8C55325
:1017500058FF8D008D93BC8F8C8B8E8793908B84DC
:1017600093818B72B1807974BB49AB8A85D2D7598A
:101770008AAB917EC6889A818097748B8DC3758A57
:10178000858D809C8F999297010A1C5F8D3BAAB032
:101790004CBE5997B82EFF038E4E0084A8970A0AB4
:1017A00036259A3C007128C0C7627B359E777EAA99
:1017B000AAE5ABAB8A9555859471607ED1AED55BB9
:1017C000C8A6B5E5588A9CFFD4388C8B5B745DA79E
:1017D000306EA096E04FDCD25E9D84848A868E7E39
:1017E00085938092905585779272A988AD832A77E8
:1017F00094738F83EFEA3DAC909B789698CD876980
:10180000489495603F00B07DAE9263681898060AD0
:10181000501CF73CAB2394C0BBE09D9800D697BB0F
:101820009DAA875C37EDE44C82FCC852CBA1FFA790
:10183000AC9D163358A2A1A296B294A162997B9155
:10184000A0A795B295C57A9A9F8EA4AF95AF904107
:041850007B969E9352
:101854000100000056200103222001032E20010A6A
:101864006220010A8A20010AB220010ADA20010654
:0218740003006F
:02000004008278
:090000000000020000C40700002A
:00000001FF
